:020000040800F2
:100000000000022061160008A9160008A9160008C1
:10001000A9160008A9160008A9160008000000008B
:10002000000000000000000000000000A916000809
:10003000A916000800000000A9160008A91600086B
:10004000A9160008A9160008A9160008A916000894
:10005000A9160008A9160008A9160008A916000884
:10006000A9160008A9160008A9160008A916000874
:10007000A9160008A9160008A9160008A916000864
:10008000A9160008A9160008A9160008A916000854
:10009000A9160008A9160008A9160008A916000844
:1000A000A9160008A9160008A9160008A916000834
:1000B00099030008E30300082D040008A9160008AE
:1000C000A9160008A9160008A9160008A916000814
:1000D000A9160008A9160008A9160008A916000804
:1000E000A9160008A9160008A9160008A9160008F4
:1000F000A9160008A9160008A9160008A9160008E4
:10010000A9160008A916000877040008A916000817
:10011000A9160008A9160008A9160008A9160008C3
:10012000A9160008A9160008A9160008A9160008B3
:10013000A9160008A9160008A9160008A9160008A3
:10014000A9160008A9160008A9160008A916000893
:10015000A9160008A9160008A9160008A916000883
:10016000A9160008A9160008A9160008A916000873
:10017000A9160008A9160008A9160008A916000863
:08018000A9160008A9160008E9
:1001880010B5054C237833B9044B13B10448AFF3C9
:1001980000800123237010BD5804002000000000D7
:1001A80084190008084B10B51BB108480849AFF37B
:1001B80000800848036803B910BD074B002BFBD02B
:1001C800BDE81040184700BF00000000841900086F
:1001D8005C0400205404002000000000154B002B94
:1001E80008BF134B9D46A3F5803A00218B460F4666
:1001F8001348144A121A01F08DFA0F4B002B00D045
:1002080098470E4B002B00D098470020002104008F
:100218000D000D48002802D00C4801F03DFB01F00C
:1002280051FA2000290000F02BF801F03BFA00BF3A
:1002380000000800000000000000000000000000AE
:100248005804002074040020A1180008AD18000804
:1002580080B483B000AF0346FB71084997F90730B3
:100268005B09FA7902F01F02012000FA02F241F854
:1002780023200C37BD465DF8047B704700E100E0A1
:1002880080B500AF00F026F800F00CF800F02EF86A
:1002980000F064F800F087F800F0AAF800F0CDF854
:1002A800FEE700BF80B582B000AF4FF470433B60FB
:1002B80001233B7103237B710023BB710023FB7176
:1002C8003B460348194600F0DDFE0837BD4680BDB1
:1002D800000C024080B500AF0F20012100F040FC67
:1002E8000820012100F0E2FB80BD00BF80B500AF0F
:1002F8001C20FFF7ADFF1D20FFF7AAFF1E20FFF708
:10030800A7FF3220FFF7A4FF80BD00BF80B500AF74
:1003180002484FF4805101F011F880BD000C0240F2
:1003280080B500AF02484FF4005101F007F880BDD6
:10033800000C024080B500AF02484FF4004100F0C5
:10034800FDFF80BD000C024080B500AF02484FF4AD
:10035800804100F0F3FF80BD000C024003B449481F
:1003680040F69F7101604848016841F00101016051
:1003780046484FF2176101604548016841F00101A4
:1003880001604448016841F00101016003BC704705
:1003980003B5FFF7BBFF4048016821F00101016088
:1003A800BDE80340704703B43C4841F6C2610160B0
:1003B8003B48016841F0010101603A484FF6FF11DE
:1003C80001603948016841F001010160374801685E
:1003D80041F00101016003BC704703B5FFF7A0FFBE
:1003E8003348016821F001010160BDE8034070470E
:1003F80003B4304842F6DF6101602F48016841F0DC
:10040800010101602D484FF2176101602C48016815
:1004180041F0010101602B48016841F001010160D0
:1004280003BC704703B5FFF78FFF2748016821F029
:1004380001010160BDE80340704703B4234843F657
:10044800085101602248016841F00101016021481A
:100458004FF6FF3101602048016841F00101016059
:100468001E48016841F00101016003BC704703B5F3
:10047800FFF760FF1A48016821F001010160BDE83B
:10048800034070472C0000400C000040280000404A
:100498001400004000000040100000402C04004000
:1004A8000C040040280400401404004000040040EC
:1004B800100400402C0800400C08004028080040A8
:1004C8001408004000080040100800402C0C0040B0
:1004D8000C0C0040280C0040140C0040000C00409C
:1004E800100C004080B400AF104A104B1B6843F05A
:1004F800010313600D4B00229A600C4A0B4B1B68DA
:1005080023F0847323F480331360084B084A5A603D
:10051800064A064B1B6823F480231360034B002212
:10052800DA60BD465DF8047B704700BF00380240C2
:100538001030002480B483B000AF0346FB71054B34
:1005480000221A70034AFB7913700C37BD465DF818
:10055800047B70470238024080B582B000AF0023A8
:100568003B600023FB710023BB71312000F086FC47
:100578000346BB713B6801333B603B68B3F5A06F32
:1005880002D0BB79002BF0D0312000F077FC034675
:10059800002B02D00123FB7101E00023FB71FB79E2
:1005A80018460837BD4680BD80B485B000AF034605
:1005B800FB710023FB600A4B1B68FB60FB6823F0A0
:1005C800F803FB60FB79DB00FA681343FB60044A1D
:1005D800FB6813601437BD465DF8047B704700BFA5
:1005E8000038024080B483B000AF0346FB71044A70
:1005F800FB7913600C37BD465DF8047B704700BF7C
:100608000000474280B483B000AF0346FB710C4B37
:1006180000221A700A4B00221A70FB79012B02D0B3
:10062800042B04D007E0064B01221A7003E0044BA8
:1006380005221A7000BF0C37BD465DF8047B704771
:100648007038024080B483B000AF0346FB71044A9F
:10065800FB7913600C37BD465DF8047B704700BF1B
:10066800800E474280B485B000AFF860B9607A6008
:100678003B600A497B689A01BB681A433B685B0880
:10068800013B1B041A43FB681A43BB691B0613434F
:100698004B601437BD465DF8047B70470038024054
:1006A80080B483B000AF0346FB71044AFB79136042
:1006B8000C37BD465DF8047B704700BF60004742B9
:1006C80080B483B000AF7860396006497B689A01CE
:1006D8003B681B071343C1F884300C37BD465DF8EF
:1006E800047B70470038024080B483B000AF0346F3
:1006F800FB71044AFB7913600C37BD465DF8047B37
:10070800704700BF6800474280B483B000AF03461B
:10071800FB71044AFB7913600C37BD465DF8047B16
:10072800704700BF4C00474280B485B000AF786086
:1007380039600023FB600A4B9B68FB60FB6823F071
:10074800EC63FB607A683B681343FA681343FB6009
:10075800034AFB6893601437BD465DF8047B704715
:100768000038024080B485B000AF7860396000235B
:10077800FB600A4B9B68FB60FB6823F07843FB60D7
:100788007A683B681343FA681343FB60034AFB68C3
:1007980093601437BD465DF8047B7047003802400B
:1007A80080B485B000AF78600023FB60094B9B687C
:1007B800FB60FB6823F00303FB60FA687B68134364
:1007C800FB60044AFB6893601437BD465DF8047B00
:1007D800704700BF0038024080B400AF054B9B68EB
:1007E800DBB203F00C03DBB21846BD465DF8047BB0
:1007F800704700BF0038024080B485B000AF786011
:100808000023FB60094B9B68FB60FB6823F0F00347
:10081800FB60FA687B681343FB60044AFB689360DB
:100828001437BD465DF8047B704700BF00380240AE
:1008380080B485B000AF78600023FB60094B9B68EB
:10084800FB60FB6823F4E053FB60FA687B681343A2
:10085800FB60044AFB6893601437BD465DF8047B6F
:10086800704700BF0038024080B485B000AF7860A0
:100878000023FB60094B9B68FB60FB6823F4604323
:10088800FB607B68DB00FA681343FB60034AFB6884
:1008980093601437BD465DF8047B7047003802400A
:1008A80080B489B000AF78600023BB6100237B610E
:1008B8000023FB6102233B610023FB600223BB6032
:1008C800484B9B6803F00C03BB61BB69042B07D042
:1008D800082B09D0002B3FD17B68434A1A603FE0C0
:1008E8007B68424A1A603BE03E4B5B6803F4800336
:1008F8009B0DFB603B4B5B6803F03F03BB60FB68F1
:10090800002B0DD0394ABB68B2FBF3F2354B59685E
:1009180047F6C0730B409B0903FB02F3FB610CE035
:10092800314ABB68B2FBF3F22E4B596847F6C073E5
:100938000B409B0903FB02F3FB612A4B5B6803F442
:1009480040331B0C01335B003B61FA693B69B2FB26
:10095800F3F27B681A6003E07B68234A1A6000BFE1
:10096800204B9B6803F0F003BB61BB691B09BB61AB
:100978001F4ABB6913441B78DBB27B617B681A682A
:100988007B69DA407B685A60164B9B6803F4E05336
:10099800BB61BB699B0ABB61154ABB6913441B78E1
:1009A800DBB27B617B685A687B69DA407B689A6056
:1009B8000C4B9B6803F46043BB61BB695B0BBB6179
:1009C8000B4ABB6913441B78DBB27B617B685A68AE
:1009D8007B69DA407B68DA602437BD465DF8047BC2
:1009E800704700BF003802400024F40000127A006B
:1009F8000400002080B485B000AF78600023FB605D
:100A08007B6803F44073B3F5407F11D10F4B9B68AB
:100A1800FB60FB6823F4F813FB607B6823F07043EA
:100A280023F44073FA681343FB60084AFB68936039
:100A38000649064B1A6F7B68C3F30B0313430B6716
:100A48001437BD465DF8047B704700BF003802408C
:100A580080B483B000AF0346FB71044AFB7913608E
:100A68000C37BD465DF8047B704700BF3C0E47421B
:100A780080B483B000AF0346FB71044AFB7913606E
:100A88000C37BD465DF8047B704700BF400E4742F7
:100A980080B483B000AF7860034A7B6813600C377A
:100AA800BD465DF8047B70475C01474280B483B063
:100AB80000AF78600B46FB70FB78002B06D0094925
:100AC800084B1A6B7B6813430B6306E00549054B1B
:100AD8001A6B7B68DB4313400B630C37BD465DF82C
:100AE800047B70470038024080B483B000AF786060
:100AF8000B46FB70FB78002B06D00949084B5A6B54
:100B08007B6813434B6306E00549054B5A6B7B68CA
:100B1800DB4313404B630C37BD465DF8047B7047DD
:100B28000038024080B483B000AF78600B46FB7099
:100B3800FB78002B06D00949084B9A6B7B68134356
:100B48008B6306E00549054B9A6B7B68DB431340D2
:100B58008B630C37BD465DF8047B70470038024054
:100B680080B483B000AF78600B46FB70FB78002B35
:100B780006D00949084B1A6C7B6813430B6406E0DE
:100B88000549054B1A6C7B68DB4313400B640C3733
:100B9800BD465DF8047B70470038024080B483B0DE
:100BA80000AF78600B46FB70FB78002B06D0094934
:100BB800084B5A6C7B6813434B6406E00549054BA8
:100BC8005A6C7B68DB4313404B640C37BD465DF8B9
:100BD800047B70470038024080B483B000AF78606F
:100BE8000B46FB70FB78002B06D00949084B1A69A5
:100BF8007B6813430B6106E00549054B1A697B685E
:100C0800DB4313400B610C37BD465DF8047B70472E
:100C18000038024080B483B000AF78600B46FB70A8
:100C2800FB78002B06D00949084B5A697B681343A7
:100C38004B6106E00549054B5A697B68DB43134065
:100C48004B610C37BD465DF8047B704700380240A5
:100C580080B483B000AF78600B46FB70FB78002B44
:100C680006D00949084B9A697B6813438B6106E0F3
:100C78000549054B9A697B68DB4313408B610C3748
:100C8800BD465DF8047B70470038024080B483B0ED
:100C980000AF78600B46FB70FB78002B06D0094943
:100CA800084B1A6A7B6813430B6206E00549054B3B
:100CB8001A6A7B68DB4313400B620C37BD465DF84C
:100CC800047B70470038024080B483B000AF78607E
:100CD8000B46FB70FB78002B06D00949084B5A6A73
:100CE8007B6813434B6206E00549054B5A6A7B68EB
:100CF800DB4313404B620C37BD465DF8047B7047FD
:100D08000038024080B483B000AF78600B46FB70B7
:100D1800FB78002B06D00949084B1A6D7B681343F2
:100D28000B6506E00549054B1A6D7B68DB431340EC
:100D38000B650C37BD465DF8047B704700380240F0
:100D480080B483B000AF78600B46FB70FB78002B53
:100D580006D00949084B5A6D7B6813434B6506E07A
:100D68000549054B5A6D7B68DB4313404B650C37CF
:100D7800BD465DF8047B70470038024080B483B0FC
:100D880000AF78600B46FB70FB78002B06D0094952
:100D9800084B9A6D7B6813438B6506E00549054B44
:100DA8009A6D7B68DB4313408B650C37BD465DF855
:100DB800047B70470038024080B483B000AF78608D
:100DC8000B46FB70FB78002B06D00949084B1A6EBE
:100DD8007B6813430B6606E00549054B1A6E7B6872
:100DE800DB4313400B660C37BD465DF8047B704748
:100DF8000038024080B483B000AF78600B46FB70C7
:100E0800FB78002B06D00949084B5A6E7B681343C0
:100E18004B6606E00549054B5A6E7B68DB43134079
:100E28004B660C37BD465DF8047B704700380240BE
:100E380080B483B000AF03460A46FB711346BB710A
:100E4800BB79002B08D00C490B4B1B78DAB2FB7925
:100E58001343DBB20B7009E00749074B1B78DAB282
:100E6800FB79DB43DBB21340DBB20B700C37BD46BA
:100E78005DF8047B704700BF0D38024080B487B02E
:100E880000AF0346FB710023FB6000237B61002356
:100E9800FB74FB795B09DBB2FB60FB68012B03D1B8
:100EA800124B1B687B6109E0FB68022B03D10F4BD7
:100EB8001B6F7B6102E00D4B5B6F7B61FB7903F07D
:100EC8001F03FB60FB687A6922FA03F303F001034E
:100ED800002B02D00123FB7401E00023FB74FB7C90
:100EE80018461C37BD465DF8047B70470038024041
:100EF80080B400AF044A044B5B6F43F080735367C0
:100F0800BD465DF8047B70470038024080B485B068
:100F180000AF0346FB710023FB73094BDA68FB79CA
:100F28001340002B02D00123FB7301E00023FB7365
:100F3800FB7B18461437BD465DF8047B704700BF3D
:100F48000038024080B483B000AF0346FB71044A06
:100F5800FB7913700C37BD465DF8047B704700BF02
:100F68000E38024080B582B000AF78607B683C4A9A
:100F7800934208D101200121FFF72EFE0120002114
:100F8800FFF72AFE68E07B68364A934208D10220C0
:100F98000121FFF721FE02200021FFF71DFE5BE083
:100FA8007B68314A934208D104200121FFF714FEDF
:100FB80004200021FFF710FE4EE07B682B4A934285
:100FC80008D108200121FFF707FE08200021FFF7BC
:100FD80003FE41E07B68264A934208D11020012194
:100FE800FFF7FAFD10200021FFF7F6FD34E07B68DB
:100FF800204A934208D120200121FFF7EDFD20204F
:101008000021FFF7E9FD27E07B681B4A934208D1DE
:1010180040200121FFF7E0FD40200021FFF7DCFD23
:101028001AE07B68154A934208D180200121FFF716
:10103800D3FD80200021FFF7CFFD0DE07B68104A2B
:10104800934209D14FF480700121FFF7C5FD4FF499
:1010580080700021FFF7C0FD0837BD4680BD00BF86
:10106800000002400004024000080240000C024058
:10107800001002400014024000180240001C024008
:101088000020024080B487B000AF78603960002348
:101098007B6100233B610023FB6000237B6176E0DA
:1010A8007B69012202FA03F33B613B681A683B69DA
:1010B8001340FB60FA683B699A4265D17B681A68FD
:1010C8007B695B00194603238B40DB431A407B682E
:1010D8001A607B681A683B681B7919467B695B0054
:1010E80001FA03F31A437B681A603B681B79012BEA
:1010F80003D03B681B79022B2ED17B689A687B69E9
:101108005B00194603238B40DB431A407B689A60D7
:101118007B689A683B685B7919467B695B0001FAD2
:1011280003F31A437B689A607B685A687B699BB2B1
:10113800194601238B40DB431A407B685A607B6861
:101148005B683A68927911467A6992B201FA02F2BA
:1011580092B21A437B685A607B68DA687B699BB2F3
:101168005B00032101FA03F3DB431A407B68DA6072
:101178007B68DA683B68DB7919467B695B0001FAB2
:1011880003F31A437B68DA607B6901337B617B690F
:101198000F2B85D91C37BD465DF8047B704700BF0F
:1011A80080B483B000AF78607B684FF6FF721A6036
:1011B8007B6800221A717B6800225A717B680022C2
:1011C8009A717B680022DA710C37BD465DF8047BA2
:1011D800704700BF80B485B000AF78600B467B8055
:1011E8004FF48033FB607A88FB681343FB60FA682E
:1011F8007B68DA617A887B68DA61FA687B68DA6129
:101208007B68DB69FB607B68DB69FB601437BD4684
:101218005DF8047B704700BF80B485B000AF78608C
:101228000B467B800023FB737B681A697B8813401D
:10123800002B02D00123FB7301E00023FB73FB7B2F
:1012480018461437BD465DF8047B704780B483B0F8
:1012580000AF78607B681B699BB218460C37BD46A7
:101268005DF8047B704700BF80B485B000AF78603C
:101278000B467B800023FB737B685A697B8813408D
:10128800002B02D00123FB7301E00023FB73FB7BDF
:1012980018461437BD465DF8047B704780B483B0A8
:1012A80000AF78607B685B699BB218460C37BD4617
:1012B8005DF8047B704700BF80B483B000AF7860EE
:1012C8000B467B807B687A881A830C37BD465DF8AD
:1012D800047B704780B483B000AF78600B467B8096
:1012E8007B687A885A830C37BD465DF8047B704763
:1012F80080B483B000AF78600B467B8013467B7068
:101308007B78002B03D07B687A881A8302E07B689D
:101318007A885A830C37BD465DF8047B704700BF56
:1013280080B483B000AF78600B467B807A887B6896
:101338005A610C37BD465DF8047B704780B483B0B2
:1013480000AF78600B467B807B685A697B885A407F
:101358007B685A610C37BD465DF8047B704700BF57
:1013680080B485B000AF78600B467B8013467B70F5
:101378000023FB600023BB607B787A8802F00702B9
:1013880092009340FB607B88DB089BB218467B8801
:10139800DB089BB21A467B68083253F822207B8808
:1013A80003F007039B0019460F238B40DB4302EA37
:1013B80003017B6800F1080243F822107B88DB08F0
:1013C8009BB21A467B68083253F82220FB68134305
:1013D800BB607B88DB089BB21A467B680832B96819
:1013E80043F822101437BD465DF8047B704700BFF0
:1013F80080B500AF154A154BD3F8883043F4700315
:10140800C2F88830124A124B1B6843F0010313607C
:101418000F4B00229A600E4A0D4B1B6823F0847311
:1014280023F4803313600A4B0A4A5A60084A084B6F
:101438001B6823F480231360054B0022DA6000F058
:1014480087F8024B4FF000629A6080BD00ED00E023
:10145800003802401030002480B487B000AF002369
:101468003B6100237B610223FB600023BB600223F6
:101478007B60324B9B6803F00C033B613B69042B98
:1014880007D0082B09D0002B3FD12D4B2D4A1A60CD
:101498003FE02B4B2C4A1A603BE0284B5B6803F477
:1014A80080039B0DBB60254B5B6803F03F037B60AB
:1014B800BB68002B0DD0244A7B68B2FBF3F21F4BAC
:1014C800596847F6C0730B409B0903FB02F37B6125
:1014D8000CE01C4A7B68B2FBF3F2184B596847F6DC
:1014E800C0730B409B0903FB02F37B61134B5B68E2
:1014F80003F440331B0C01335B00FB607A69FB6823
:10150800B2FBF3F30E4A136003E00D4B0D4A1A6069
:1015180000BF0A4B9B6803F0F0031B090B4AD35C1E
:10152800DBB23B61064B1A683B6922FA03F3044AB3
:1015380013601C37BD465DF8047B704700380240D5
:10154800140000200024F40000127A001800002083
:1015580080B483B000AF00237B6000233B60354A32
:10156800344B1B6843F480331360324B1B6803F41D
:1015780000333B607B6801337B603B68002B03D101
:101588007B68B3F5A06FF0D12A4B1B6803F40033D6
:10159800002B02D001233B6001E000233B603B6845
:1015A800012B42D1234A234B1B6C43F08053136415
:1015B800214A214B1B6843F4804313601D4A1D4B8D
:1015C8009B6893601B4A1B4B9B6843F400439360E2
:1015D800184A184B9B6843F4A0539360154B174A5D
:1015E8005A60144A134B1B6843F08073136000BFA2
:1015F800104B1B6803F00073002BF9D0104B40F21E
:1016080005621A600B4A0B4B9B6823F00303936037
:10161800084A084B9B6843F00203936000BF054BE0
:101628009B6803F00C03082BF9D10C37BD465DF815
:10163800047B70470038024000700040085440079F
:10164800003C0240B41900080000002054040020A7
:101658005804002074040020002103E00B4B5B5861
:10166800435004310A480B4B42189A42F6D30A4AAF
:1016780002E0002342F8043B084B9A42F9D3FFF7F3
:10168800B7FE00F01FF8FEF7FBFD7047B41900081D
:101698000000002054040020580400207404002096
:1016A800FEE7000008B50021044600F08BF8044B63
:1016B8001868C36B03B19847204600F06DF900BF66
:1016C8008019000870B50F4E0F4D761BB61018BF65
:1016D800002405D0013455F8043B9847A642F9D1B7
:1016E8000A4E0B4D761B00F04BF9B61018BF0024BC
:1016F80006D0013455F8043B9847A642F9D170BD8D
:1017080070BD00BFA8190008A8190008B019000882
:10171800A819000870B4840746D0541E002A41D086
:10172800CDB2034602E0621EE4B3144603F8015B3F
:101738009A07F8D1032C2ED9CDB245EA05250F2CEE
:1017480045EA054519D903F110022646103E0F2E29
:1017580042F8105C42F80C5C42F8085C42F8045C01
:1017680002F11002F2D8A4F1100222F00F0204F0E4
:101778000F041032032C13440DD91E462246043A96
:10178800032A46F8045BFAD8221F22F00302043227
:10179800134404F003042CB1C9B21C4403F8011B20
:1017A800A342FBD170BC704714460346C2E700BF92
:1017B800024B13B1024800F06FB8704700000000F8
:1017C800AD1800082DE9F04F314B83B01B6800932A
:1017D80003F5A47381460E460193009BD3F8487124
:1017E80027B3DDF804A07C68651E0ED4013407EB2E
:1017F80084044FF00008E6B1D4F80031B34218D0A1
:10180800013D6B1CA4F10404F5D1224B73B17B6834
:10181800002B36D13B68002B34D03846CAF800304C
:10182800AFF30080DAF80070002FDCD103B0BDE818
:10183800F08F7B682268013BAB420CBF7D60C4F827
:101848000080002ADCD0D7F88831D7F804B001210D
:10185800A940194208D190477B685B45BDD1DAF8A9
:101868000030BB42CCD0B8E7D7F88C31194204D14C
:101878004846D4F880109047EEE7D4F880009047A7
:10188800EAE73B68BA461F46002FACD1CEE700BF57
:1018980080190008000000000146002002460346A7
:1018A80000F016B838B5084B084DED1AAC1018BF43
:1018B800ED1805D0013C55F8043D9847002CF9D1A6
:1018C800BDE8384000F062B8B0190008B419000843
:1018D8002DE9F047254C2568D5F848410646884645
:1018E80092469946CCB360681F2818DC431C7EB129
:1018F80004EB80050121C5F888A0D4F8887101FAA5
:1019080000F21743022EC4F88871C5F808911ED05A
:101918000230636044F820800020BDE8F087144B53
:1019280003B34FF4C870AFF300800446D0B1D5F8C4
:101938004831002780E88800C5F848413846012327
:10194800C4F88871C4F88C71002EE1D0D0E7D4F8BF
:101958008C110A43C4F88C21DAE705F5A674C5F89A
:101968004841C0E74FF0FF30BDE8F0878019000814
:1019780000000000430000002800002000000000D4
:10198800F8B500BFF8BC08BC9E467047F8B500BF64
:08199800F8BC08BC9E46704734
:0819A00044E8FF7F0100000094
:0819A800B9170008AD010008A9
:0419B00089010008A1
:1019B400000000000000000001020304010203040F
:1019C40006070809007A030A00000000000000006E
:1019D40001020304060708090000000014030020A4
:1019E4007C030020E403002000000000000000004D
:1019F40000000000000000000000000000000000E3
:101A04000000000000000000000000007C19000835
:101A140000000000000000000000000000000000C2
:101A240000000000000000000000000000000000B2
:101A340000000000000000000000000000000000A2
:101A44000000000000000000000000000000000092
:101A54000000000000000000000000000000000082
:101A64000000000000000000000000000000000072
:101A74000000000000000000000000000000000062
:101A840001000000000000000E33CDAB34126DE6FF
:101A9400ECDE05000B000000000000000000000068
:101AA4000000000000000000000000000000000032
:101AB4000000000000000000000000000000000022
:101AC4000000000000000000000000000000000012
:101AD4000000000000000000000000000000000002
:041E04002800002092
:041E080000000000D6
:040000050800166178
:00000001FF
