:020000040800F2
:080000000000022009000008C5
:1000080000F01FF800F02FF82448016841F00801BB
:100018000160234823490160234881EA010182EAFB
:1000280002024FF48051016000F006F881EA0101F4
:10003800016000F001F8F4E7C0F25F02013AFDD177
:1000480070471A48016841F00101194A21EA020182
:100058000160184840F20001016017480160174824
:100068001749016070471148016821F4802141F463
:1000780080310160016811F40031FBD00D4840F275
:100088000101016082EA0202C0F201020168013A3C
:1000980003D001F00C010429F8D170473038024030
:1000A800000C024000000001140C0240003802401D
:1000B80000000901083802400C38024004380240A8
:0400C80010300024D0
:0400000508000008E7
:00000001FF
